{
  "abi": [
    {
      "inputs": [
        {
          "internalType": "uint256",
          "name": "_base",
          "type": "uint256"
        },
        {
          "internalType": "uint256",
          "name": "_interval",
          "type": "uint256"
        }
      ],
      "stateMutability": "nonpayable",
      "type": "constructor"
    },
    {
      "anonymous": false,
      "inputs": [
        {
          "indexed": false,
          "internalType": "address",
          "name": "_from",
          "type": "address"
        },
        {
          "indexed": false,
          "internalType": "uint256",
          "name": "_time",
          "type": "uint256"
        },
        {
          "indexed": false,
          "internalType": "uint256",
          "name": "_penalty",
          "type": "uint256"
        }
      ],
      "name": "isCalled",
      "type": "event"
    },
    {
      "inputs": [
        {
          "internalType": "address",
          "name": "",
          "type": "address"
        },
        {
          "internalType": "uint256",
          "name": "",
          "type": "uint256"
        }
      ],
      "name": "MisbehaviorList",
      "outputs": [
        {
          "internalType": "address",
          "name": "subject",
          "type": "address"
        },
        {
          "internalType": "address",
          "name": "object",
          "type": "address"
        },
        {
          "internalType": "string",
          "name": "res",
          "type": "string"
        },
        {
          "internalType": "string",
          "name": "action",
          "type": "string"
        },
        {
          "internalType": "string",
          "name": "misbehavior",
          "type": "string"
        },
        {
          "internalType": "uint256",
          "name": "time",
          "type": "uint256"
        },
        {
          "internalType": "uint256",
          "name": "penalty",
          "type": "uint256"
        }
      ],
      "stateMutability": "view",
      "type": "function"
    },
    {
      "inputs": [],
      "name": "base",
      "outputs": [
        {
          "internalType": "uint256",
          "name": "",
          "type": "uint256"
        }
      ],
      "stateMutability": "view",
      "type": "function"
    },
    {
      "inputs": [
        {
          "internalType": "address",
          "name": "_key",
          "type": "address"
        }
      ],
      "name": "getLatestMisbehavior",
      "outputs": [
        {
          "internalType": "address",
          "name": "_subject",
          "type": "address"
        },
        {
          "internalType": "address",
          "name": "_object",
          "type": "address"
        },
        {
          "internalType": "string",
          "name": "_res",
          "type": "string"
        },
        {
          "internalType": "string",
          "name": "_action",
          "type": "string"
        },
        {
          "internalType": "string",
          "name": "_misbehavior",
          "type": "string"
        },
        {
          "internalType": "uint256",
          "name": "_time",
          "type": "uint256"
        }
      ],
      "stateMutability": "view",
      "type": "function"
    },
    {
      "inputs": [],
      "name": "interval",
      "outputs": [
        {
          "internalType": "uint256",
          "name": "",
          "type": "uint256"
        }
      ],
      "stateMutability": "view",
      "type": "function"
    },
    {
      "inputs": [
        {
          "internalType": "address",
          "name": "_subject",
          "type": "address"
        },
        {
          "internalType": "address",
          "name": "_object",
          "type": "address"
        },
        {
          "internalType": "string",
          "name": "_res",
          "type": "string"
        },
        {
          "internalType": "string",
          "name": "_action",
          "type": "string"
        },
        {
          "internalType": "string",
          "name": "_misbehavior",
          "type": "string"
        },
        {
          "internalType": "uint256",
          "name": "_time",
          "type": "uint256"
        }
      ],
      "name": "misbehaviorJudge",
      "outputs": [
        {
          "internalType": "uint256",
          "name": "penalty",
          "type": "uint256"
        }
      ],
      "stateMutability": "nonpayable",
      "type": "function"
    },
    {
      "inputs": [],
      "name": "owner",
      "outputs": [
        {
          "internalType": "address",
          "name": "",
          "type": "address"
        }
      ],
      "stateMutability": "view",
      "type": "function"
    },
    {
      "inputs": [],
      "name": "self_destruct",
      "outputs": [],
      "stateMutability": "nonpayable",
      "type": "function"
    }
  ],
  "bytecode": {
    "object": "0x608060405234801561001057600080fd5b50604051610e56380380610e568339818101604052604081101561003357600080fd5b508051602090910151600091909155600155600280546001600160a01b03191633179055610df0806100666000396000f3fe608060405234801561001057600080fd5b506004361061007d5760003560e01c80635ce3dec11161005b5780635ce3dec11461041b5780638da5cb5b14610425578063947a36fb14610449578063c288429d146104515761007d565b80632500d7ec146100825780635001f3b5146102325780635452bf6b1461024c575b600080fd5b6100ae6004803603604081101561009857600080fd5b506001600160a01b0381351690602001356105f4565b60405180886001600160a01b03166001600160a01b03168152602001876001600160a01b03166001600160a01b03168152602001806020018060200180602001868152602001858152602001848103845289818151815260200191508051906020019080838360005b8381101561012f578181015183820152602001610117565b50505050905090810190601f16801561015c5780820380516001836020036101000a031916815260200191505b5084810383528851815288516020918201918a019080838360005b8381101561018f578181015183820152602001610177565b50505050905090810190601f1680156101bc5780820380516001836020036101000a031916815260200191505b50848103825287518152875160209182019189019080838360005b838110156101ef5781810151838201526020016101d7565b50505050905090810190601f16801561021c5780820380516001836020036101000a031916815260200191505b509a505050505050505050505060405180910390f35b61023a6107fa565b60408051918252519081900360200190f35b61023a600480360360c081101561026257600080fd5b6001600160a01b03823581169260208101359091169181019060608101604082013564010000000081111561029657600080fd5b8201836020820111156102a857600080fd5b803590602001918460018302840111640100000000831117156102ca57600080fd5b91908080601f016020809104026020016040519081016040528093929190818152602001838380828437600092019190915250929594936020810193503591505064010000000081111561031d57600080fd5b82018360208201111561032f57600080fd5b8035906020019184600183028401116401000000008311171561035157600080fd5b91908080601f01602080910402602001604051908101604052809392919081815260200183838082843760009201919091525092959493602081019350359150506401000000008111156103a457600080fd5b8201836020820111156103b657600080fd5b803590602001918460018302840111640100000000831117156103d857600080fd5b91908080601f0160208091040260200160405190810160405280939291908181526020018383808284376000920191909152509295505091359250610800915050565b6104236109d8565b005b61042d6109f0565b604080516001600160a01b039092168252519081900360200190f35b61023a6109ff565b6104776004803603602081101561046757600080fd5b50356001600160a01b0316610a05565b60405180876001600160a01b03166001600160a01b03168152602001866001600160a01b03166001600160a01b03168152602001806020018060200180602001858152602001848103845288818151815260200191508051906020019080838360005b838110156104f25781810151838201526020016104da565b50505050905090810190601f16801561051f5780820380516001836020036101000a031916815260200191505b50848103835287518152875160209182019189019080838360005b8381101561055257818101518382015260200161053a565b50505050905090810190601f16801561057f5780820380516001836020036101000a031916815260200191505b50848103825286518152865160209182019188019080838360005b838110156105b257818101518382015260200161059a565b50505050905090810190601f1680156105df5780820380516001836020036101000a031916815260200191505b50995050505050505050505060405180910390f35b6003602052816000526040600020818154811061060d57fe5b600091825260209182902060079091020180546001808301546002808501805460408051601f600019978416156101000297909701909216939093049485018890048802810188019092528382526001600160a01b03948516985091909316955092939192918301828280156106c45780601f10610699576101008083540402835291602001916106c4565b820191906000526020600020905b8154815290600101906020018083116106a757829003601f168201915b5050505060038301805460408051602060026001851615610100026000190190941693909304601f81018490048402820184019092528181529495949350908301828280156107545780601f1061072957610100808354040283529160200191610754565b820191906000526020600020905b81548152906001019060200180831161073757829003601f168201915b5050505060048301805460408051602060026001851615610100026000190190941693909304601f81018490048402820184019092528181529495949350908301828280156107e45780601f106107b9576101008083540402835291602001916107e4565b820191906000526020600020905b8154815290600101906020018083116107c757829003601f168201915b5050505050908060050154908060060154905087565b60005481565b6001600160a01b038616600090815260036020526040812054600180549101908290828161082a57fe5b049050806000540a9250600360008a6001600160a01b03166001600160a01b031681526020019081526020016000206040518060e001604052808b6001600160a01b031681526020018a6001600160a01b0316815260200189815260200188815260200187815260200186815260200185815250908060018154018082558091505060019003906000526020600020906007020160009091909190915060008201518160000160006101000a8154816001600160a01b0302191690836001600160a01b0316021790555060208201518160010160006101000a8154816001600160a01b0302191690836001600160a01b03160217905550604082015181600201908051906020019061093d929190610d1f565b5060608201518051610959916003840191602090910190610d1f565b5060808201518051610975916004840191602090910190610d1f565b5060a0820151600582015560c090910151600690910155604080513381526020810186905280820185905290517fbb115d93edf7045bd259dae8cf3d0dff61dad85e67baee752fa8efe8389d75459181900360600190a150509695505050505050565b6002546001600160a01b03163314156109ee5730ff5b565b6002546001600160a01b031681565b60015481565b6001600160a01b03811660009081526003602052604081208054829160609182918291859160001982019182908110610a3a57fe5b600091825260208083206007909202909101546001600160a01b038b8116845260039092526040909220805491909216985082908110610a7657fe5b60009182526020808320600160079093020191909101546001600160a01b038b8116845260039092526040909220805491909216975082908110610ab657fe5b600091825260209182902060026007909202018101805460408051601f600019610100600186161502019093169490940491820185900485028401850190528083529192909190830182828015610b4e5780601f10610b2357610100808354040283529160200191610b4e565b820191906000526020600020905b815481529060010190602001808311610b3157829003601f168201915b505050506001600160a01b038a1660009081526003602052604090208054929750918391508110610b7b57fe5b6000918252602091829020600360079092020101805460408051601f6002600019610100600187161502019094169390930492830185900485028101850190915281815292830182828015610c115780601f10610be657610100808354040283529160200191610c11565b820191906000526020600020905b815481529060010190602001808311610bf457829003601f168201915b505050506001600160a01b038a1660009081526003602052604090208054929650918391508110610c3e57fe5b6000918252602091829020600460079092020101805460408051601f6002600019610100600187161502019094169390930492830185900485028101850190915281815292830182828015610cd45780601f10610ca957610100808354040283529160200191610cd4565b820191906000526020600020905b815481529060010190602001808311610cb757829003601f168201915b505050506001600160a01b038a1660009081526003602052604090208054929550918391508110610d0157fe5b90600052602060002090600702016005015491505091939550919395565b828054600181600116156101000203166002900490600052602060002090601f016020900481019282601f10610d6057805160ff1916838001178555610d8d565b82800160010185558215610d8d579182015b82811115610d8d578251825591602001919060010190610d72565b50610d99929150610d9d565b5090565b610db791905b80821115610d995760008155600101610da3565b9056fea2646970667358221220e6dbae0c838dad87b3cf0361d8358718e41a53200dd1f99c94b5ec5a659b1da964736f6c63430006000033",
    "linkReferences": {}
  },
  "methodIdentifiers": {
    "MisbehaviorList(address,uint256)": "2500d7ec",
    "base()": "5001f3b5",
    "getLatestMisbehavior(address)": "c288429d",
    "interval()": "947a36fb",
    "misbehaviorJudge(address,address,string,string,string,uint256)": "5452bf6b",
    "owner()": "8da5cb5b",
    "self_destruct()": "5ce3dec1"
  },
  "id": 11
}