{
  "abi": [
    {
      "inputs": [
        {
          "internalType": "address",
          "name": "addr",
          "type": "address"
        }
      ],
      "stateMutability": "nonpayable",
      "type": "constructor"
    },
    {
      "anonymous": false,
      "inputs": [
        {
          "indexed": false,
          "internalType": "address",
          "name": "newAdmin",
          "type": "address"
        },
        {
          "indexed": false,
          "internalType": "address",
          "name": "addingAdmin",
          "type": "address"
        }
      ],
      "name": "AdminAdded",
      "type": "event"
    },
    {
      "anonymous": false,
      "inputs": [
        {
          "indexed": false,
          "internalType": "address",
          "name": "newAdmin",
          "type": "address"
        },
        {
          "indexed": false,
          "internalType": "address",
          "name": "deletingAdmin",
          "type": "address"
        }
      ],
      "name": "AdminDeleted",
      "type": "event"
    },
    {
      "anonymous": false,
      "inputs": [
        {
          "indexed": false,
          "internalType": "address",
          "name": "user",
          "type": "address"
        },
        {
          "indexed": false,
          "internalType": "address",
          "name": "device",
          "type": "address"
        }
      ],
      "name": "Authenticated",
      "type": "event"
    },
    {
      "anonymous": false,
      "inputs": [
        {
          "indexed": false,
          "internalType": "address",
          "name": "newDevice",
          "type": "address"
        },
        {
          "indexed": false,
          "internalType": "address",
          "name": "addingAdmin",
          "type": "address"
        }
      ],
      "name": "DeviceAdded",
      "type": "event"
    },
    {
      "anonymous": false,
      "inputs": [
        {
          "indexed": false,
          "internalType": "address",
          "name": "device",
          "type": "address"
        },
        {
          "indexed": false,
          "internalType": "address",
          "name": "sender",
          "type": "address"
        }
      ],
      "name": "DeviceDoesnotExist",
      "type": "event"
    },
    {
      "anonymous": false,
      "inputs": [
        {
          "indexed": false,
          "internalType": "address",
          "name": "user",
          "type": "address"
        }
      ],
      "name": "NotAuthenticated",
      "type": "event"
    },
    {
      "anonymous": false,
      "inputs": [
        {
          "indexed": false,
          "internalType": "bytes32",
          "name": "uid",
          "type": "bytes32"
        },
        {
          "indexed": false,
          "internalType": "address",
          "name": "user",
          "type": "address"
        },
        {
          "indexed": false,
          "internalType": "address",
          "name": "device",
          "type": "address"
        },
        {
          "indexed": false,
          "internalType": "uint256",
          "name": "numberOfOracles",
          "type": "uint256"
        }
      ],
      "name": "TokenCreated",
      "type": "event"
    },
    {
      "anonymous": false,
      "inputs": [
        {
          "indexed": false,
          "internalType": "address",
          "name": "user",
          "type": "address"
        },
        {
          "indexed": false,
          "internalType": "address",
          "name": "deletingAdmin",
          "type": "address"
        }
      ],
      "name": "UserDeviceAllMappingDeleted",
      "type": "event"
    },
    {
      "anonymous": false,
      "inputs": [
        {
          "indexed": false,
          "internalType": "address",
          "name": "user",
          "type": "address"
        },
        {
          "indexed": false,
          "internalType": "address",
          "name": "device",
          "type": "address"
        },
        {
          "indexed": false,
          "internalType": "address",
          "name": "addingAdmin",
          "type": "address"
        }
      ],
      "name": "UserDeviceMappingAdded",
      "type": "event"
    },
    {
      "inputs": [
        {
          "internalType": "uint256",
          "name": "",
          "type": "uint256"
        }
      ],
      "name": "Devices",
      "outputs": [
        {
          "internalType": "address",
          "name": "",
          "type": "address"
        }
      ],
      "stateMutability": "view",
      "type": "function"
    },
    {
      "inputs": [
        {
          "internalType": "uint256",
          "name": "",
          "type": "uint256"
        }
      ],
      "name": "Tokens",
      "outputs": [
        {
          "internalType": "bytes32",
          "name": "UID",
          "type": "bytes32"
        },
        {
          "internalType": "address",
          "name": "user",
          "type": "address"
        },
        {
          "internalType": "address",
          "name": "dev",
          "type": "address"
        },
        {
          "internalType": "uint256",
          "name": "numberOfOracles",
          "type": "uint256"
        }
      ],
      "stateMutability": "view",
      "type": "function"
    },
    {
      "inputs": [
        {
          "internalType": "address",
          "name": "newAdmin",
          "type": "address"
        }
      ],
      "name": "addAdmin",
      "outputs": [],
      "stateMutability": "nonpayable",
      "type": "function"
    },
    {
      "inputs": [
        {
          "internalType": "address",
          "name": "newDevice",
          "type": "address"
        }
      ],
      "name": "addDevice",
      "outputs": [],
      "stateMutability": "nonpayable",
      "type": "function"
    },
    {
      "inputs": [
        {
          "internalType": "address",
          "name": "user",
          "type": "address"
        },
        {
          "internalType": "address",
          "name": "device",
          "type": "address"
        }
      ],
      "name": "addUserDeviceMapping",
      "outputs": [],
      "stateMutability": "nonpayable",
      "type": "function"
    },
    {
      "inputs": [
        {
          "internalType": "address",
          "name": "admin",
          "type": "address"
        }
      ],
      "name": "delAdmin",
      "outputs": [],
      "stateMutability": "nonpayable",
      "type": "function"
    },
    {
      "inputs": [
        {
          "internalType": "address",
          "name": "user",
          "type": "address"
        }
      ],
      "name": "delUser",
      "outputs": [],
      "stateMutability": "nonpayable",
      "type": "function"
    },
    {
      "inputs": [
        {
          "internalType": "address",
          "name": "device",
          "type": "address"
        },
        {
          "internalType": "uint256",
          "name": "numberOracle",
          "type": "uint256"
        }
      ],
      "name": "requestUserToAccessDevice",
      "outputs": [],
      "stateMutability": "nonpayable",
      "type": "function"
    },
    {
      "inputs": [
        {
          "internalType": "address",
          "name": "",
          "type": "address"
        },
        {
          "internalType": "uint256",
          "name": "",
          "type": "uint256"
        }
      ],
      "name": "users_devices",
      "outputs": [
        {
          "internalType": "address",
          "name": "",
          "type": "address"
        }
      ],
      "stateMutability": "view",
      "type": "function"
    }
  ],
  "bytecode": {
    "object": "0x60806040526000805534801561001457600080fd5b50604051610dba380380610dba833981016040819052610033916100a2565b60038054600180820183556000929092527fc2575a0e9e593c00f959f8c92f12db2869c3395a3b0502d05e2516446f71f85b018054336001600160a01b0319918216811790925582548116909117909155600280549091166001600160a01b03929092169190911790556100d0565b6000602082840312156100b3578081fd5b81516001600160a01b03811681146100c9578182fd5b9392505050565b610cdb806100df6000396000f3fe608060405234801561001057600080fd5b50600436106100935760003560e01c8063704802751161006657806370480275146100fc578063953c81331461010f578063b111cb8414610132578063d709883e14610145578063f849f3791461015857610093565b806330788fa9146100985780633192c6c9146100ad5780635cf50c3b146100d657806362d91855146100e9575b600080fd5b6100ab6100a6366004610b68565b61016b565b005b6100c06100bb366004610b68565b6104c6565b6040516100cd9190610bdd565b60405180910390f35b6100ab6100e4366004610b34565b6104fb565b6100ab6100f7366004610b12565b610674565b6100ab61010a366004610b12565b6107bf565b61012261011d366004610b92565b6108ae565b6040516100cd9493929190610c2e565b6100ab610140366004610b12565b6108f1565b6100c0610153366004610b92565b6109d4565b6100ab610166366004610b12565b6109fb565b6000805b6005548110156101bc57836001600160a01b03166005828154811061019057fe5b6000918252602090912001546001600160a01b031614156101b457600191506101bc565b60010161016f565b5080610200577f3b86ec0da552157df039c28e2e45926f7bc2e9c85e1f431d201929912acd96b983336040516101f3929190610bf1565b60405180910390a16104c1565b6000805b3360009081526006602052604090205481101561026e5733600090815260066020526040902080546001600160a01b03871691908390811061024257fe5b6000918252602090912001546001600160a01b03161415610266576001915061026e565b600101610204565b508015610482577fd42c368decf104a7572c7884ea7028fe04ef7d3e76dbd706484f9175d6c4ec6233856040516102a6929190610bf1565b60405180910390a16000843342866040516020016102c79493929190610baa565b60408051601f198184030181528282528051602091820120608084018352808452339184018281526001600160a01b038a8116868601908152606087018b8152600480546001810182556000829052985198027f8a35acfbc15ff81a39ae7d344fd709f28e8600b4aa8c65c6b64bfe7fe36bd19b81019890985592517f8a35acfbc15ff81a39ae7d344fd709f28e8600b4aa8c65c6b64bfe7fe36bd19c880180549184166001600160a01b031992831617905590517f8a35acfbc15ff81a39ae7d344fd709f28e8600b4aa8c65c6b64bfe7fe36bd19d88018054919093169116179055517f8a35acfbc15ff81a39ae7d344fd709f28e8600b4aa8c65c6b64bfe7fe36bd19e9094019390935590519192507f3c9c6b33edf8b3d2c723c561f47370872eba9acd7415c905f311a327a8dfccc19161040991849189908990610c2e565b60405180910390a16002546040516301a587cb60e01b81526001600160a01b039091169081906301a587cb9061044990859033908b908b90600401610c2e565b600060405180830381600087803b15801561046357600080fd5b505af1158015610477573d6000803e3d6000fd5b5050505050506104bf565b806104bf577fedc2b9184e4f83d4cc9079ff886f15cd4ebc064df34bb7414aa697c2d5812a57336040516104b69190610bdd565b60405180910390a15b505b505050565b600660205281600052604060002081815481106104df57fe5b6000918252602090912001546001600160a01b03169150829050565b6000805b600354811015610543576003818154811061051657fe5b6000918252602090912001546001600160a01b031633141561053b5760019150610543565b6001016104ff565b508061056a5760405162461bcd60e51b815260040161056190610c53565b60405180910390fd5b6000805b6005548110156105bb57836001600160a01b03166005828154811061058f57fe5b6000918252602090912001546001600160a01b031614156105b357600191506105bb565b60010161056e565b508015610643576001600160a01b0384811660009081526006602090815260408083208054600181018255908452919092200180546001600160a01b03191692861692909217909155517f2bcf37722896726376c458b554088e6faf08f08a84cf6bb5709da9e1fd968ddf9061063690869086903390610c0b565b60405180910390a16104bf565b7f3b86ec0da552157df039c28e2e45926f7bc2e9c85e1f431d201929912acd96b983336040516104b6929190610bf1565b6000805b6003548110156106bc576003818154811061068f57fe5b6000918252602090912001546001600160a01b03163314156106b457600191506106bc565b600101610678565b50806106da5760405162461bcd60e51b815260040161056190610c53565b6003546002118015906106fb57506001546001600160a01b03838116911614155b6107175760405162461bcd60e51b815260040161056190610c79565b60005b6003548110156104c157826001600160a01b03166003828154811061073b57fe5b6000918252602090912001546001600160a01b031614156107b7576003818154811061076357fe5b600091825260209091200180546001600160a01b03191690556040517f6ac01b7aa18a8f6fd542477b7bbab44275bf3d95edf08e9404bb423ef2356da1906107ae9085903390610bf1565b60405180910390a15b60010161071a565b6000805b60035481101561080757600381815481106107da57fe5b6000918252602090912001546001600160a01b03163314156107ff5760019150610807565b6001016107c3565b50806108255760405162461bcd60e51b815260040161056190610c53565b600380546001810182556000919091527fc2575a0e9e593c00f959f8c92f12db2869c3395a3b0502d05e2516446f71f85b0180546001600160a01b0319166001600160a01b0384161790556040517fbf3f493c772c8c283fd124432c2d0f539ab343faa04258fe88e52912d36b102b906108a29084903390610bf1565b60405180910390a15050565b600481815481106108bb57fe5b600091825260209091206004909102018054600182015460028301546003909301549193506001600160a01b0390811692169084565b6000805b600354811015610939576003818154811061090c57fe5b6000918252602090912001546001600160a01b03163314156109315760019150610939565b6001016108f5565b50806109575760405162461bcd60e51b815260040161056190610c53565b600580546001810182556000919091527f036b6384b5eca791c62761152d0c79bb0604c104a5fb6f4eb0703f3154bb3db00180546001600160a01b0319166001600160a01b0384161790556040517ffe60226b9c524c49ff3f012aea1c16166e24616cba2a64f33ad1befdf9118918906108a29084903390610bf1565b600581815481106109e157fe5b6000918252602090912001546001600160a01b0316905081565b6000805b600354811015610a435760038181548110610a1657fe5b6000918252602090912001546001600160a01b0316331415610a3b5760019150610a43565b6001016109ff565b5080610a615760405162461bcd60e51b815260040161056190610c53565b6001600160a01b0382166000908152600660205260408120610a8291610ab3565b7fd583bac0996795f46c61a719ca6954d32d592a449d37914310382ab0d2f6455682336040516108a2929190610bf1565b5080546000825590600052602060002090810190610ad19190610ad4565b50565b610af291905b80821115610aee5760008155600101610ada565b5090565b90565b80356001600160a01b0381168114610b0c57600080fd5b92915050565b600060208284031215610b23578081fd5b610b2d8383610af5565b9392505050565b60008060408385031215610b46578081fd5b610b508484610af5565b9150610b5f8460208501610af5565b90509250929050565b60008060408385031215610b7a578182fd5b610b848484610af5565b946020939093013593505050565b600060208284031215610ba3578081fd5b5035919050565b6bffffffffffffffffffffffff19606095861b811682529390941b90921660148401526028830152604882015260680190565b6001600160a01b0391909116815260200190565b6001600160a01b0392831681529116602082015260400190565b6001600160a01b0393841681529183166020830152909116604082015260600190565b9384526001600160a01b03928316602085015291166040830152606082015260800190565b6020808252600c908201526b2737ba1030b71030b236b4b760a11b604082015260600190565b60208082526012908201527121b0b73737ba103232b63a329030b236b4b760711b60408201526060019056fea26469706673582212205d4e4222ee73284190ba1febdb884b72ef3fd10a53e851ca1b35ca896d58b2da64736f6c63430006000033",
    "linkReferences": {}
  },
  "methodIdentifiers": {
    "Devices(uint256)": "d709883e",
    "Tokens(uint256)": "953c8133",
    "addAdmin(address)": "70480275",
    "addDevice(address)": "b111cb84",
    "addUserDeviceMapping(address,address)": "5cf50c3b",
    "delAdmin(address)": "62d91855",
    "delUser(address)": "f849f379",
    "requestUserToAccessDevice(address,uint256)": "30788fa9",
    "users_devices(address,uint256)": "3192c6c9"
  },
  "id": 6
}