{
  "abi": [
    {
      "inputs": [
        {
          "internalType": "address",
          "name": "_subject",
          "type": "address"
        }
      ],
      "stateMutability": "nonpayable",
      "type": "constructor"
    },
    {
      "anonymous": false,
      "inputs": [
        {
          "indexed": true,
          "internalType": "address",
          "name": "_from",
          "type": "address"
        },
        {
          "indexed": false,
          "internalType": "string",
          "name": "_errmsg",
          "type": "string"
        },
        {
          "indexed": false,
          "internalType": "bool",
          "name": "_result",
          "type": "bool"
        },
        {
          "indexed": false,
          "internalType": "uint256",
          "name": "_time",
          "type": "uint256"
        },
        {
          "indexed": false,
          "internalType": "uint256",
          "name": "_penalty",
          "type": "uint256"
        }
      ],
      "name": "ReturnAccessResult",
      "type": "event"
    },
    {
      "inputs": [
        {
          "internalType": "string",
          "name": "_resource",
          "type": "string"
        },
        {
          "internalType": "string",
          "name": "_action",
          "type": "string"
        },
        {
          "internalType": "uint256",
          "name": "_time",
          "type": "uint256"
        }
      ],
      "name": "accessControl",
      "outputs": [],
      "stateMutability": "nonpayable",
      "type": "function"
    },
    {
      "inputs": [],
      "name": "deleteACC",
      "outputs": [],
      "stateMutability": "nonpayable",
      "type": "function"
    },
    {
      "inputs": [
        {
          "internalType": "string",
          "name": "_resource",
          "type": "string"
        },
        {
          "internalType": "string",
          "name": "_action",
          "type": "string"
        }
      ],
      "name": "getPolicy",
      "outputs": [
        {
          "internalType": "string",
          "name": "_permission",
          "type": "string"
        },
        {
          "internalType": "uint256",
          "name": "_minInterval",
          "type": "uint256"
        },
        {
          "internalType": "uint256",
          "name": "_threshold",
          "type": "uint256"
        },
        {
          "internalType": "uint256",
          "name": "_ToLR",
          "type": "uint256"
        },
        {
          "internalType": "uint256",
          "name": "_NoFR",
          "type": "uint256"
        },
        {
          "internalType": "bool",
          "name": "_res",
          "type": "bool"
        },
        {
          "internalType": "uint8",
          "name": "_errcode",
          "type": "uint8"
        }
      ],
      "stateMutability": "view",
      "type": "function"
    },
    {
      "inputs": [
        {
          "internalType": "string",
          "name": "_resource",
          "type": "string"
        }
      ],
      "name": "getTimeofUnblock",
      "outputs": [
        {
          "internalType": "uint256",
          "name": "_penalty",
          "type": "uint256"
        },
        {
          "internalType": "uint256",
          "name": "_timeOfUnblock",
          "type": "uint256"
        }
      ],
      "stateMutability": "view",
      "type": "function"
    },
    {
      "inputs": [],
      "name": "jc",
      "outputs": [
        {
          "internalType": "contract Judge",
          "name": "",
          "type": "address"
        }
      ],
      "stateMutability": "view",
      "type": "function"
    },
    {
      "inputs": [
        {
          "internalType": "string",
          "name": "_resource",
          "type": "string"
        },
        {
          "internalType": "string",
          "name": "_action",
          "type": "string"
        },
        {
          "internalType": "uint256",
          "name": "_newMinInterval",
          "type": "uint256"
        }
      ],
      "name": "minIntervalUpdate",
      "outputs": [],
      "stateMutability": "nonpayable",
      "type": "function"
    },
    {
      "inputs": [],
      "name": "object",
      "outputs": [
        {
          "internalType": "address",
          "name": "",
          "type": "address"
        }
      ],
      "stateMutability": "view",
      "type": "function"
    },
    {
      "inputs": [],
      "name": "owner",
      "outputs": [
        {
          "internalType": "address",
          "name": "",
          "type": "address"
        }
      ],
      "stateMutability": "view",
      "type": "function"
    },
    {
      "inputs": [
        {
          "internalType": "string",
          "name": "_resource",
          "type": "string"
        },
        {
          "internalType": "string",
          "name": "_action",
          "type": "string"
        },
        {
          "internalType": "string",
          "name": "_permission",
          "type": "string"
        },
        {
          "internalType": "uint256",
          "name": "_minInterval",
          "type": "uint256"
        },
        {
          "internalType": "uint256",
          "name": "_threshold",
          "type": "uint256"
        }
      ],
      "name": "policyAdd",
      "outputs": [],
      "stateMutability": "nonpayable",
      "type": "function"
    },
    {
      "inputs": [
        {
          "internalType": "string",
          "name": "_resource",
          "type": "string"
        },
        {
          "internalType": "string",
          "name": "_action",
          "type": "string"
        }
      ],
      "name": "policyDelete",
      "outputs": [],
      "stateMutability": "nonpayable",
      "type": "function"
    },
    {
      "inputs": [
        {
          "internalType": "string",
          "name": "_resource",
          "type": "string"
        },
        {
          "internalType": "string",
          "name": "_action",
          "type": "string"
        },
        {
          "internalType": "string",
          "name": "_newPermission",
          "type": "string"
        }
      ],
      "name": "policyUpdate",
      "outputs": [],
      "stateMutability": "nonpayable",
      "type": "function"
    },
    {
      "inputs": [
        {
          "internalType": "address",
          "name": "_jc",
          "type": "address"
        }
      ],
      "name": "setJC",
      "outputs": [],
      "stateMutability": "nonpayable",
      "type": "function"
    },
    {
      "inputs": [
        {
          "internalType": "string",
          "name": "_str",
          "type": "string"
        }
      ],
      "name": "stringToBytes32",
      "outputs": [
        {
          "internalType": "bytes32",
          "name": "",
          "type": "bytes32"
        }
      ],
      "stateMutability": "view",
      "type": "function"
    },
    {
      "inputs": [],
      "name": "subject",
      "outputs": [
        {
          "internalType": "address",
          "name": "",
          "type": "address"
        }
      ],
      "stateMutability": "view",
      "type": "function"
    },
    {
      "inputs": [
        {
          "internalType": "string",
          "name": "_resource",
          "type": "string"
        },
        {
          "internalType": "string",
          "name": "_action",
          "type": "string"
        },
        {
          "internalType": "uint256",
          "name": "_newThreshold",
          "type": "uint256"
        }
      ],
      "name": "thresholdUpdate",
      "outputs": [],
      "stateMutability": "nonpayable",
      "type": "function"
    }
  ],
  "bytecode": {
    "object": "0x608060405234801561001057600080fd5b50604051611caf380380611caf8339818101604052602081101561003357600080fd5b505160008054336001600160a01b0319918216811783556002805483169091179055600180549091166001600160a01b0390931692909217909155611c3190819061007e90396000f3fe608060405234801561001057600080fd5b50600436106100f55760003560e01c806397e20b3b11610097578063c798456011610066578063c798456014610922578063cfb5192814610a4d578063d25bc24214610b03578063d3b334b814610cb1576100f5565b806397e20b3b1461045c578063a73458ca14610587578063b43edde514610644578063b799767f146107f7576100f5565b80632e06aac6116100d35780632e06aac61461014e57806345a5b82d146103235780635a3c11231461032b5780638da5cb5b14610454576100f5565b80630a59a98c146100fa5780632812988f1461011e57806328885b6014610126575b600080fd5b610102610cb9565b604080516001600160a01b039092168252519081900360200190f35b610102610cc8565b61014c6004803603602081101561013c57600080fd5b50356001600160a01b0316610cd7565b005b6102776004803603604081101561016457600080fd5b810190602081018135600160201b81111561017e57600080fd5b82018360208201111561019057600080fd5b803590602001918460018302840111600160201b831117156101b157600080fd5b91908080601f0160208091040260200160405190810160405280939291908181526020018383808284376000920191909152509295949360208101935035915050600160201b81111561020357600080fd5b82018360208201111561021557600080fd5b803590602001918460018302840111600160201b8311171561023657600080fd5b91908080601f016020809104026020016040519081016040528093929190818152602001838380828437600092019190915250929550610d09945050505050565b6040518080602001888152602001878152602001868152602001858152602001841515151581526020018360ff1660ff168152602001828103825289818151815260200191508051906020019080838360005b838110156102e25781810151838201526020016102ca565b50505050905090810190601f16801561030f5780820380516001836020036101000a031916815260200191505b509850505050505050505060405180910390f35b610102610e7d565b61014c6004803603604081101561034157600080fd5b810190602081018135600160201b81111561035b57600080fd5b82018360208201111561036d57600080fd5b803590602001918460018302840111600160201b8311171561038e57600080fd5b91908080601f0160208091040260200160405190810160405280939291908181526020018383808284376000920191909152509295949360208101935035915050600160201b8111156103e057600080fd5b8201836020820111156103f257600080fd5b803590602001918460018302840111600160201b8311171561041357600080fd5b91908080601f016020809104026020016040519081016040528093929190818152602001838380828437600092019190915250929550610e8c945050505050565b610102610f3b565b61014c6004803603606081101561047257600080fd5b810190602081018135600160201b81111561048c57600080fd5b82018360208201111561049e57600080fd5b803590602001918460018302840111600160201b831117156104bf57600080fd5b91908080601f0160208091040260200160405190810160405280939291908181526020018383808284376000920191909152509295949360208101935035915050600160201b81111561051157600080fd5b82018360208201111561052357600080fd5b803590602001918460018302840111600160201b8311171561054457600080fd5b91908080601f0160208091040260200160405190810160405280939291908181526020018383808284376000920191909152509295505091359250610f4a915050565b61062b6004803603602081101561059d57600080fd5b810190602081018135600160201b8111156105b757600080fd5b8201836020820111156105c957600080fd5b803590602001918460018302840111600160201b831117156105ea57600080fd5b91908080601f016020809104026020016040519081016040528093929190818152602001838380828437600092019190915250929550610fd4945050505050565b6040805192835260208301919091528051918290030190f35b61014c600480360360a081101561065a57600080fd5b810190602081018135600160201b81111561067457600080fd5b82018360208201111561068657600080fd5b803590602001918460018302840111600160201b831117156106a757600080fd5b91908080601f0160208091040260200160405190810160405280939291908181526020018383808284376000920191909152509295949360208101935035915050600160201b8111156106f957600080fd5b82018360208201111561070b57600080fd5b803590602001918460018302840111600160201b8311171561072c57600080fd5b91908080601f0160208091040260200160405190810160405280939291908181526020018383808284376000920191909152509295949360208101935035915050600160201b81111561077e57600080fd5b82018360208201111561079057600080fd5b803590602001918460018302840111600160201b831117156107b157600080fd5b91908080601f0160208091040260200160405190810160405280939291908181526020018383808284376000920191909152509295505082359350505060200135610ffd565b61014c6004803603606081101561080d57600080fd5b810190602081018135600160201b81111561082757600080fd5b82018360208201111561083957600080fd5b803590602001918460018302840111600160201b8311171561085a57600080fd5b91908080601f0160208091040260200160405190810160405280939291908181526020018383808284376000920191909152509295949360208101935035915050600160201b8111156108ac57600080fd5b8201836020820111156108be57600080fd5b803590602001918460018302840111600160201b831117156108df57600080fd5b91908080601f016020809104026020016040519081016040528093929190818152602001838380828437600092019190915250929550509135925061110f915050565b61014c6004803603606081101561093857600080fd5b810190602081018135600160201b81111561095257600080fd5b82018360208201111561096457600080fd5b803590602001918460018302840111600160201b8311171561098557600080fd5b91908080601f0160208091040260200160405190810160405280939291908181526020018383808284376000920191909152509295949360208101935035915050600160201b8111156109d757600080fd5b8201836020820111156109e957600080fd5b803590602001918460018302840111600160201b83111715610a0a57600080fd5b91908080601f0160208091040260200160405190810160405280939291908181526020018383808284376000920191909152509295505091359250611179915050565b610af160048036036020811015610a6357600080fd5b810190602081018135600160201b811115610a7d57600080fd5b820183602082011115610a8f57600080fd5b803590602001918460018302840111600160201b83111715610ab057600080fd5b91908080601f0160208091040260200160405190810160405280939291908181526020018383808284376000920191909152509295506119de945050505050565b60408051918252519081900360200190f35b61014c60048036036060811015610b1957600080fd5b810190602081018135600160201b811115610b3357600080fd5b820183602082011115610b4557600080fd5b803590602001918460018302840111600160201b83111715610b6657600080fd5b91908080601f0160208091040260200160405190810160405280939291908181526020018383808284376000920191909152509295949360208101935035915050600160201b811115610bb857600080fd5b820183602082011115610bca57600080fd5b803590602001918460018302840111600160201b83111715610beb57600080fd5b91908080601f0160208091040260200160405190810160405280939291908181526020018383808284376000920191909152509295949360208101935035915050600160201b811115610c3d57600080fd5b820183602082011115610c4f57600080fd5b803590602001918460018302840111600160201b83111715610c7057600080fd5b91908080601f016020809104026020016040519081016040528093929190818152602001838380828437600092019190915250929550611a05945050505050565b61014c611a96565b6001546001600160a01b031681565b6002546001600160a01b031681565b6000546001600160a01b0316331415610d0657600380546001600160a01b0319166001600160a01b0383161790555b50565b60606000806000806000806000610d1f8a6119de565b90506000610d2c8a6119de565b600083815260046020908152604080832084845290915290205490915060ff1615610e49576000828152600460209081526040808320848452825291829020600190810180548451600293821615610100026000190190911692909204601f810184900484028301840190945283825290929091830182828015610df15780601f10610dc657610100808354040283529160200191610df1565b820191906000526020600020905b815481529060010190602001808311610dd457829003601f168201915b505050600085815260046020818152604080842088855290915290912060028101546005820154928201546003830154600690930154969f50909d50919b50995097505060ff80831696506101009092049091169350505b600082815260046020908152604080832084845290915290205460ff16610e6f57600080fd5b505092959891949750929550565b6003546001600160a01b031681565b6000610e97836119de565b90506000610ea4836119de565b6000549091506001600160a01b0316331415610f3557600082815260046020908152604080832084845290915290205460ff1615610f355760008281526004602090815260408083208484529091528120805460ff1916815590610f0b6001830182611aae565b5060006002820181905560038201819055600482018190556005820155600601805461ffff191690555b50505050565b6000546001600160a01b031681565b6000610f55846119de565b90506000610f62846119de565b600083815260046020908152604080832084845290915290205490915060ff1615610fa757600082815260046020908152604080832084845290915290206005018390555b600082815260046020908152604080832084845290915290205460ff16610fcd57600080fd5b5050505050565b6000806000610fe2846119de565b60009081526005602052604090206001015492949293505050565b6000611008866119de565b90506000611015866119de565b6000549091506001600160a01b0316331461102f57600080fd5b600082815260046020908152604080832084845290915290205460ff1615611056576110e0565b60008281526004602090815260408083208484528252909120865161108392600190920191880190611af2565b506000828152600460208181526040808420858552825280842060028101899055600580820189905560038201869055938101859055805460ff199081166001908117835560069092018054909116905586855292909152822001555b600082815260046020908152604080832084845290915290205460ff1661110657600080fd5b50505050505050565b600061111a846119de565b90506000611127846119de565b600083815260046020908152604080832084845290915290205490915060ff1615610fa75760008281526004602090815260408083208484529091529020600281018490555460ff16610fcd57600080fd5b60006001818080611189886119de565b90506000611196886119de565b6001549091506001600160a01b031633141561170b5760006111b78a6119de565b905060006111c48a6119de565b60008381526005602052604090206001015490915089116111e857600195506116e7565b6000828152600560205260409020600101541561123157600082815260056020908152604080832060010183905560048083528184208585529092528220908101829055600301555b6000828152600460209081526040808320848452825291829020825180830192835260019182018054600293811615610100026000190116929092049381018490529092829160600190849080156112ca5780601f1061129f576101008083540402835291602001916112ca565b820191906000526020600020905b8154815290600101906020018083116112ad57829003601f168201915b505060408051601f19818403018152828252805160209091012064616c6c6f7760d81b83529051918290036005019091201415925061130f9150505760019750611314565b600097505b6000828152600460209081526040808320848452909152902060028101546003909101548a031161168b5760008281526004602081815260408084208585529091529091209081018054600101908190556005909101541161168657600360009054906101000a90046001600160a01b03166001600160a01b0316635452bf6b600160009054906101000a90046001600160a01b0316600260009054906101000a90046001600160a01b03168e8e8e6040518663ffffffff1660e01b815260040180866001600160a01b03166001600160a01b03168152602001856001600160a01b03166001600160a01b03168152602001806020018060200180602001858152602001848103845287818151815260200191508051906020019080838360005b8381101561144d578181015183820152602001611435565b50505050905090810190601f16801561147a5780820380516001836020036101000a031916815260200191505b50848103835286518152865160209182019188019080838360005b838110156114ad578181015183820152602001611495565b50505050905090810190601f1680156114da5780820380516001836020036101000a031916815260200191505b508481038252601481526020018073546f6f206672657175656e74206163636573732160601b81525060200198505050505050505050602060405180830381600087803b15801561152a57600080fd5b505af115801561153e573d6000803e3d6000fd5b505050506040513d602081101561155457600080fd5b810190808051906020019092919050505094506000965084603c0289016005600084815260200190815260200160002060010181905550600560008381526020019081526020016000206000016040518060a001604052808d81526020018c815260200160405180604001604052806014815260200173546f6f206672657175656e74206163636573732160601b81525081526020018b81526020018781525090806001815401808255809150506001900390600052602060002090600502016000909190919091506000820151816000019080519060200190611639929190611af2565b5060208281015180516116529260018501920190611af2565b506040820151805161166e916002840191602090910190611af2565b50606082015181600301556080820151816004015550505b6116a7565b6000828152600460208181526040808420858552909152822001555b871580156116b25750865b156116bc57600295505b8780156116c7575086155b156116d157600395505b871580156116dd575086155b156116e757600495505b60009182526004602090815260408084209284529190529020600301879055611710565b600593505b85801561171a5750845b60008381526004602090815260408083208584529091529020600601805460ff19169115159190911761ff00191661010060ff8716908102919091179091556117b95760408051600160208201528082018990526060810185905260808082526012908201527141636365737320617574686f72697a65642160701b60a082015290513391600080516020611bb0833981519152919081900360c00190a25b8360ff16600114156118245760408051600060208201528082018990526060810185905260808082526015908201527452657175657374732061726520626c6f636b65642160581b60a082015290513391600080516020611bb0833981519152919081900360c00190a25b8360ff166002141561188e5760408051600060208201528082018990526060810185905260808082526014908201527353746174696320436865636b206661696c65642160601b60a082015290513391600080516020611bb0833981519152919081900360c00190a25b8360ff16600314156118f9576040805160006020820152808201899052606081018590526080808252601590820152744d69736265686176696f722064657465637465642160581b60a082015290513391600080516020611bb0833981519152919081900360c00190a25b8360ff166004141561196657336001600160a01b0316600080516020611bb0833981519152600089866040518080602001851515151581526020018481526020018381526020018281038252602c815260200180611bd0602c913960400194505050505060405180910390a25b8360ff16600514156119d357336001600160a01b0316600080516020611bb08339815191526000898660405180806020018515151515815260200184815260200183815260200182810382526022815260200180611b8e6022913960400194505050505060405180910390a25b505050505050505050565b8051600090829082906119f7575060009150611a009050565b50505060208101515b919050565b6000611a10846119de565b90506000611a1d846119de565b600083815260046020908152604080832084845290915290205490915060ff1615610fa757600082815260046020908152604080832084845282529091208451611a6f92600190920191860190611af2565b50600082815260046020908152604080832084845290915290205460ff16610fcd57600080fd5b6000546001600160a01b0316331415611aac5730ff5b565b50805460018160011615610100020316600290046000825580601f10611ad45750610d06565b601f016020900490600052602060002090810190610d069190611b70565b828054600181600116156101000203166002900490600052602060002090601f016020900481019282601f10611b3357805160ff1916838001178555611b60565b82800160010185558215611b60579182015b82811115611b60578251825591602001919060010190611b45565b50611b6c929150611b70565b5090565b611b8a91905b80821115611b6c5760008155600101611b76565b9056fe57726f6e67206f626a656374206f72207375626a6563742073706563696669656421ff92c090738d04f6256126fa734cbbd01d7fd4e82b501873433f2208134a086053746174696320636865636b206661696c6564212026204d69736265686176696f7220646574656374656421a2646970667358221220928605a6a7da67d65aed6097ea470884db1f998c2ece625d98c47405ccba228064736f6c63430006000033",
    "linkReferences": {}
  },
  "methodIdentifiers": {
    "accessControl(string,string,uint256)": "c7984560",
    "deleteACC()": "d3b334b8",
    "getPolicy(string,string)": "2e06aac6",
    "getTimeofUnblock(string)": "a73458ca",
    "jc()": "45a5b82d",
    "minIntervalUpdate(string,string,uint256)": "b799767f",
    "object()": "2812988f",
    "owner()": "8da5cb5b",
    "policyAdd(string,string,string,uint256,uint256)": "b43edde5",
    "policyDelete(string,string)": "5a3c1123",
    "policyUpdate(string,string,string)": "d25bc242",
    "setJC(address)": "28885b60",
    "stringToBytes32(string)": "cfb51928",
    "subject()": "0a59a98c",
    "thresholdUpdate(string,string,uint256)": "97e20b3b"
  },
  "id": 10
}