{
  "abi": [
    {
      "inputs": [
        {
          "internalType": "string",
          "name": "_methodName",
          "type": "string"
        }
      ],
      "name": "getContractAbi",
      "outputs": [
        {
          "internalType": "bytes",
          "name": "_abi",
          "type": "bytes"
        }
      ],
      "stateMutability": "view",
      "type": "function"
    },
    {
      "inputs": [
        {
          "internalType": "string",
          "name": "_methodName",
          "type": "string"
        }
      ],
      "name": "getContractAddr",
      "outputs": [
        {
          "internalType": "address",
          "name": "_scAddress",
          "type": "address"
        }
      ],
      "stateMutability": "view",
      "type": "function"
    },
    {
      "inputs": [
        {
          "internalType": "bytes32",
          "name": "",
          "type": "bytes32"
        }
      ],
      "name": "lookupTable",
      "outputs": [
        {
          "internalType": "string",
          "name": "scName",
          "type": "string"
        },
        {
          "internalType": "address",
          "name": "subject",
          "type": "address"
        },
        {
          "internalType": "address",
          "name": "object",
          "type": "address"
        },
        {
          "internalType": "address",
          "name": "creator",
          "type": "address"
        },
        {
          "internalType": "address",
          "name": "scAddress",
          "type": "address"
        },
        {
          "internalType": "bytes",
          "name": "abi",
          "type": "bytes"
        }
      ],
      "stateMutability": "view",
      "type": "function"
    },
    {
      "inputs": [
        {
          "internalType": "string",
          "name": "_methodName",
          "type": "string"
        },
        {
          "internalType": "bytes",
          "name": "_abi",
          "type": "bytes"
        }
      ],
      "name": "methodAbiUpdate",
      "outputs": [],
      "stateMutability": "nonpayable",
      "type": "function"
    },
    {
      "inputs": [
        {
          "internalType": "string",
          "name": "_methodName",
          "type": "string"
        },
        {
          "internalType": "address",
          "name": "_scAddress",
          "type": "address"
        }
      ],
      "name": "methodAcAddressUpdate",
      "outputs": [],
      "stateMutability": "nonpayable",
      "type": "function"
    },
    {
      "inputs": [
        {
          "internalType": "string",
          "name": "_name",
          "type": "string"
        }
      ],
      "name": "methodDelete",
      "outputs": [],
      "stateMutability": "nonpayable",
      "type": "function"
    },
    {
      "inputs": [
        {
          "internalType": "string",
          "name": "_oldName",
          "type": "string"
        },
        {
          "internalType": "string",
          "name": "_newName",
          "type": "string"
        }
      ],
      "name": "methodNameUpdate",
      "outputs": [],
      "stateMutability": "nonpayable",
      "type": "function"
    },
    {
      "inputs": [
        {
          "internalType": "string",
          "name": "_methodName",
          "type": "string"
        },
        {
          "internalType": "string",
          "name": "_scname",
          "type": "string"
        },
        {
          "internalType": "address",
          "name": "_subject",
          "type": "address"
        },
        {
          "internalType": "address",
          "name": "_object",
          "type": "address"
        },
        {
          "internalType": "address",
          "name": "_creator",
          "type": "address"
        },
        {
          "internalType": "address",
          "name": "_scAddress",
          "type": "address"
        },
        {
          "internalType": "bytes",
          "name": "_abi",
          "type": "bytes"
        }
      ],
      "name": "methodRegister",
      "outputs": [],
      "stateMutability": "nonpayable",
      "type": "function"
    },
    {
      "inputs": [
        {
          "internalType": "string",
          "name": "_methodName",
          "type": "string"
        },
        {
          "internalType": "string",
          "name": "_scName",
          "type": "string"
        }
      ],
      "name": "methodScNameUpdate",
      "outputs": [],
      "stateMutability": "nonpayable",
      "type": "function"
    },
    {
      "inputs": [
        {
          "internalType": "string",
          "name": "_str",
          "type": "string"
        }
      ],
      "name": "stringToBytes32",
      "outputs": [
        {
          "internalType": "bytes32",
          "name": "",
          "type": "bytes32"
        }
      ],
      "stateMutability": "view",
      "type": "function"
    }
  ],
  "bytecode": {
    "object": "0x608060405234801561001057600080fd5b50611244806100206000396000f3fe608060405234801561001057600080fd5b506004361061009e5760003560e01c80639898ef99116100665780639898ef99146106ec578063c59913b31461079b578063cfb51928146108c4578063dee759b31461097a578063ec725edc14610a935761009e565b806322cad3da146100a3578063753f6a67146102025780637b44c5a31461032d57806386baf989146105035780638b0b98851461062c575b600080fd5b6100c0600480360360208110156100b957600080fd5b5035610b37565b6040518080602001876001600160a01b03166001600160a01b03168152602001866001600160a01b03166001600160a01b03168152602001856001600160a01b03166001600160a01b03168152602001846001600160a01b03166001600160a01b0316815260200180602001838103835289818151815260200191508051906020019080838360005b83811015610161578181015183820152602001610149565b50505050905090810190601f16801561018e5780820380516001836020036101000a031916815260200191505b50838103825284518152845160209182019186019080838360005b838110156101c15781810151838201526020016101a9565b50505050905090810190601f1680156101ee5780820380516001836020036101000a031916815260200191505b509850505050505050505060405180910390f35b61032b6004803603604081101561021857600080fd5b810190602081018135600160201b81111561023257600080fd5b82018360208201111561024457600080fd5b803590602001918460018302840111600160201b8311171561026557600080fd5b91908080601f0160208091040260200160405190810160405280939291908181526020018383808284376000920191909152509295949360208101935035915050600160201b8111156102b757600080fd5b8201836020820111156102c957600080fd5b803590602001918460018302840111600160201b831117156102ea57600080fd5b91908080601f016020809104026020016040519081016040528093929190818152602001838380828437600092019190915250929550610c92945050505050565b005b61032b600480360360e081101561034357600080fd5b810190602081018135600160201b81111561035d57600080fd5b82018360208201111561036f57600080fd5b803590602001918460018302840111600160201b8311171561039057600080fd5b91908080601f0160208091040260200160405190810160405280939291908181526020018383808284376000920191909152509295949360208101935035915050600160201b8111156103e257600080fd5b8201836020820111156103f457600080fd5b803590602001918460018302840111600160201b8311171561041557600080fd5b91908080601f01602080910402602001604051908101604052809392919081815260200183838082843760009201919091525092956001600160a01b03853581169660208701358216966040810135831696506060810135909216945091925060a081019060800135600160201b81111561048f57600080fd5b8201836020820111156104a157600080fd5b803590602001918460018302840111600160201b831117156104c257600080fd5b91908080601f016020809104026020016040519081016040528093929190818152602001838380828437600092019190915250929550610cc5945050505050565b61032b6004803603604081101561051957600080fd5b810190602081018135600160201b81111561053357600080fd5b82018360208201111561054557600080fd5b803590602001918460018302840111600160201b8311171561056657600080fd5b91908080601f0160208091040260200160405190810160405280939291908181526020018383808284376000920191909152509295949360208101935035915050600160201b8111156105b857600080fd5b8201836020820111156105ca57600080fd5b803590602001918460018302840111600160201b831117156105eb57600080fd5b91908080601f016020809104026020016040519081016040528093929190818152602001838380828437600092019190915250929550610d73945050505050565b6106d06004803603602081101561064257600080fd5b810190602081018135600160201b81111561065c57600080fd5b82018360208201111561066e57600080fd5b803590602001918460018302840111600160201b8311171561068f57600080fd5b91908080601f016020809104026020016040519081016040528093929190818152602001838380828437600092019190915250929550610da4945050505050565b604080516001600160a01b039092168252519081900360200190f35b61032b6004803603604081101561070257600080fd5b810190602081018135600160201b81111561071c57600080fd5b82018360208201111561072e57600080fd5b803590602001918460018302840111600160201b8311171561074f57600080fd5b91908080601f016020809104026020016040519081016040528093929190818152602001838380828437600092019190915250929550505090356001600160a01b03169150610dd29050565b61032b600480360360408110156107b157600080fd5b810190602081018135600160201b8111156107cb57600080fd5b8201836020820111156107dd57600080fd5b803590602001918460018302840111600160201b831117156107fe57600080fd5b91908080601f0160208091040260200160405190810160405280939291908181526020018383808284376000920191909152509295949360208101935035915050600160201b81111561085057600080fd5b82018360208201111561086257600080fd5b803590602001918460018302840111600160201b8311171561088357600080fd5b91908080601f016020809104026020016040519081016040528093929190818152602001838380828437600092019190915250929550610e11945050505050565b610968600480360360208110156108da57600080fd5b810190602081018135600160201b8111156108f457600080fd5b82018360208201111561090657600080fd5b803590602001918460018302840111600160201b8311171561092757600080fd5b91908080601f016020809104026020016040519081016040528093929190818152602001838380828437600092019190915250929550610f6e945050505050565b60408051918252519081900360200190f35b610a1e6004803603602081101561099057600080fd5b810190602081018135600160201b8111156109aa57600080fd5b8201836020820111156109bc57600080fd5b803590602001918460018302840111600160201b831117156109dd57600080fd5b91908080601f016020809104026020016040519081016040528093929190818152602001838380828437600092019190915250929550610f95945050505050565b6040805160208082528351818301528351919283929083019185019080838360005b83811015610a58578181015183820152602001610a40565b50505050905090810190601f168015610a855780820380516001836020036101000a031916815260200191505b509250505060405180910390f35b61032b60048036036020811015610aa957600080fd5b810190602081018135600160201b811115610ac357600080fd5b820183602082011115610ad557600080fd5b803590602001918460018302840111600160201b83111715610af657600080fd5b91908080601f016020809104026020016040519081016040528093929190818152602001838380828437600092019190915250929550611045945050505050565b6000602081815291815260409081902080548251601f600260001961010060018616150201909316929092049182018590048502810185019093528083529092839190830182828015610bcb5780601f10610ba057610100808354040283529160200191610bcb565b820191906000526020600020905b815481529060010190602001808311610bae57829003601f168201915b5050506001808501546002808701546003880154600489015460058a018054604080516020601f6000199b851615610100029b909b01909316979097049889018290048202870182019052878652999a6001600160a01b039687169a94871699509286169750941694909391830182828015610c885780601f10610c5d57610100808354040283529160200191610c88565b820191906000526020600020905b815481529060010190602001808311610c6b57829003601f168201915b5050505050905086565b6000610c9d83610f6e565b6000818152602081815260409091208451929350610cbf9290918501906110b7565b50505050565b6000610cd088610f6e565b6000818152602081815260409091208951929350610cf29290918a01906110b7565b506000818152602081815260409091206001810180546001600160a01b03808b166001600160a01b0319928316179092556002830180548a8416908316179055600383018054898416908316179055600483018054928816929091169190911790558351610d68926005909201918501906110b7565b505050505050505050565b6000610d7e83610f6e565b6000818152602081815260409091208451929350610cbf926005909101918501906110b7565b600080610db083610f6e565b6000908152602081905260409020600401546001600160a01b03169392505050565b6000610ddd83610f6e565b600090815260208190526040902060040180546001600160a01b0319166001600160a01b0393909316929092179091555050565b6000610e1c83610f6e565b90506000610e2983610f6e565b60008381526020819052604080822083835291208154929350610e619290919060026000196101006001841615020190911604611135565b5060008281526020819052604080822060018082015485855292842080820180546001600160a01b03199081166001600160a01b03968716179091556002808501548184018054841691881691909117905560038086015490840180548416918816919091179055600480860154908401805490931696169590951790559385905260059182018054610f0a959390930193909291821615610100026000190190911604611135565b50600082815260208190526040812090610f2482826111aa565b6001820180546001600160a01b031990811690915560028301805482169055600383018054821690556004830180549091169055610f666005830160006111aa565b505050505050565b805160009082908290610f87575060009150610f909050565b50505060208101515b919050565b60606000610fa283610f6e565b600081815260208181526040918290206005018054835160026001831615610100026000190190921691909104601f810184900484028201840190945283815293945091908301828280156110385780601f1061100d57610100808354040283529160200191611038565b820191906000526020600020905b81548152906001019060200180831161101b57829003601f168201915b5050505050915050919050565b60008061105183610f6e565b81526020019081526020016000206000808201600061107091906111aa565b6001820180546001600160a01b0319908116909155600283018054821690556003830180548216905560048301805490911690556110b26005830160006111aa565b505050565b828054600181600116156101000203166002900490600052602060002090601f016020900481019282601f106110f857805160ff1916838001178555611125565b82800160010185558215611125579182015b8281111561112557825182559160200191906001019061110a565b506111319291506111f1565b5090565b828054600181600116156101000203166002900490600052602060002090601f016020900481019282601f1061116e5780548555611125565b8280016001018555821561112557600052602060002091601f016020900482015b8281111561112557825482559160010191906001019061118f565b50805460018160011615610100020316600290046000825580601f106111d057506111ee565b601f0160209004906000526020600020908101906111ee91906111f1565b50565b61120b91905b8082111561113157600081556001016111f7565b9056fea26469706673582212207f237da75b3cabc0d59e7a993a84d86da4616c8e465a706f2fa43a7f3f30acb764736f6c63430006000033",
    "linkReferences": {}
  },
  "methodIdentifiers": {
    "getContractAbi(string)": "dee759b3",
    "getContractAddr(string)": "8b0b9885",
    "lookupTable(bytes32)": "22cad3da",
    "methodAbiUpdate(string,bytes)": "86baf989",
    "methodAcAddressUpdate(string,address)": "9898ef99",
    "methodDelete(string)": "ec725edc",
    "methodNameUpdate(string,string)": "c59913b3",
    "methodRegister(string,string,address,address,address,address,bytes)": "7b44c5a3",
    "methodScNameUpdate(string,string)": "753f6a67",
    "stringToBytes32(string)": "cfb51928"
  },
  "id": 12
}