{
  "abi": [
    {
      "inputs": [],
      "stateMutability": "nonpayable",
      "type": "constructor"
    },
    {
      "anonymous": false,
      "inputs": [
        {
          "indexed": false,
          "internalType": "address",
          "name": "newAggregator",
          "type": "address"
        },
        {
          "indexed": false,
          "internalType": "address",
          "name": "owner",
          "type": "address"
        }
      ],
      "name": "AggregatorAdded",
      "type": "event"
    },
    {
      "inputs": [
        {
          "internalType": "address",
          "name": "aggregatorAddress",
          "type": "address"
        }
      ],
      "name": "addAggregator",
      "outputs": [],
      "stateMutability": "nonpayable",
      "type": "function"
    },
    {
      "inputs": [
        {
          "internalType": "address",
          "name": "oracleAddress",
          "type": "address"
        }
      ],
      "name": "getOracleReputation",
      "outputs": [
        {
          "internalType": "uint256",
          "name": "averageReputationScore",
          "type": "uint256"
        }
      ],
      "stateMutability": "view",
      "type": "function"
    },
    {
      "inputs": [
        {
          "internalType": "address",
          "name": "",
          "type": "address"
        }
      ],
      "name": "oracles",
      "outputs": [
        {
          "internalType": "uint256",
          "name": "numContributions",
          "type": "uint256"
        },
        {
          "internalType": "uint256",
          "name": "averageReputation",
          "type": "uint256"
        }
      ],
      "stateMutability": "view",
      "type": "function"
    },
    {
      "inputs": [],
      "name": "owner",
      "outputs": [
        {
          "internalType": "address",
          "name": "",
          "type": "address"
        }
      ],
      "stateMutability": "view",
      "type": "function"
    },
    {
      "inputs": [
        {
          "internalType": "address[]",
          "name": "oracleAddress",
          "type": "address[]"
        },
        {
          "internalType": "uint256[]",
          "name": "points",
          "type": "uint256[]"
        }
      ],
      "name": "reportReputationScore",
      "outputs": [
        {
          "internalType": "address",
          "name": "winningOracleAddress",
          "type": "address"
        }
      ],
      "stateMutability": "nonpayable",
      "type": "function"
    }
  ],
  "bytecode": {
    "object": "0x608060405234801561001057600080fd5b50600080546001600160a01b031916331790819055610040906001600160a01b03166001600160e01b0361004516565b610117565b6000546001600160a01b0316331461008e5760405162461bcd60e51b81526004018080602001828103825260228152602001806106b26022913960400191505060405180910390fd5b6001805480820182556000919091527fb10e2d527612073b26eecdfd717e6a320cf44b4afac2b0732d9fcbe2b7fa0cf60180546001600160a01b0319166001600160a01b0383169081179091556040805191825233602083015280517fd0fba1bf19483034d35babed2c54b89fb8cbe1fac33ac43b2a36d81be7c91e799281900390910190a150565b61058c806101266000396000f3fe608060405234801561001057600080fd5b50600436106100575760003560e01c80636520b0091461005c578063854398b5146100845780638da5cb5b146100bc578063a7480eb8146100e0578063addd509914610207575b600080fd5b6100826004803603602081101561007257600080fd5b50356001600160a01b0316610246565b005b6100aa6004803603602081101561009a57600080fd5b50356001600160a01b0316610318565b60408051918252519081900360200190f35b6100c4610336565b604080516001600160a01b039092168252519081900360200190f35b6100c4600480360360408110156100f657600080fd5b81019060208101813564010000000081111561011157600080fd5b82018360208201111561012357600080fd5b8035906020019184602083028401116401000000008311171561014557600080fd5b919080806020026020016040519081016040528093929190818152602001838360200280828437600092019190915250929594936020810193503591505064010000000081111561019557600080fd5b8201836020820111156101a757600080fd5b803590602001918460208302840111640100000000831117156101c957600080fd5b919080806020026020016040519081016040528093929190818152602001838360200280828437600092019190915250929550610345945050505050565b61022d6004803603602081101561021d57600080fd5b50356001600160a01b031661049d565b6040805192835260208301919091528051918290030190f35b6000546001600160a01b0316331461028f5760405162461bcd60e51b81526004018080602001828103825260228152602001806105356022913960400191505060405180910390fd5b6001805480820182556000919091527fb10e2d527612073b26eecdfd717e6a320cf44b4afac2b0732d9fcbe2b7fa0cf60180546001600160a01b0319166001600160a01b0383169081179091556040805191825233602083015280517fd0fba1bf19483034d35babed2c54b89fb8cbe1fac33ac43b2a36d81be7c91e799281900390910190a150565b6001600160a01b031660009081526002602052604090206001015490565b6000546001600160a01b031681565b600080805b60015481101561038e576001818154811061036157fe5b6000918252602090912001546001600160a01b0316331415610386576001915061038e565b60010161034a565b506001811515146103e6576040805162461bcd60e51b815260206004820152601e60248201527f4f6e6c792061676772656761746f722063616e2063616c6c20746869732e0000604482015290519081900360640190fd5b60005b845181101561048b57600085828151811061040057fe5b6020908102919091018101516001600160a01b038116600090815260029092526040909120805460019182015488519394509092909183019088908690811061044557fe5b6020026020010151828402018161045857fe5b6001600160a01b0390941660009081526002602052604090209304600180850191909155835481019093555050016103e9565b50610495846104b6565b949350505050565b6002602052600090815260409020805460019091015482565b60008080805b845181101561052c57600260008683815181106104d557fe5b60200260200101516001600160a01b03166001600160a01b031681526020019081526020016000206001015491508282106105245781925084818151811061051957fe5b602002602001015193505b6001016104bc565b50505091905056fe4f6e6c7920636f6e7472616374206f776e65722063616e2063616c6c20746869732ea264697066735822122055198def1aa8f93e16539b96caf08f0665f73bd49ff69857ea09413cb086952864736f6c634300060000334f6e6c7920636f6e7472616374206f776e65722063616e2063616c6c20746869732e",
    "linkReferences": {}
  },
  "methodIdentifiers": {
    "addAggregator(address)": "6520b009",
    "getOracleReputation(address)": "854398b5",
    "oracles(address)": "addd5099",
    "owner()": "8da5cb5b",
    "reportReputationScore(address[],uint256[])": "a7480eb8"
  },
  "id": 9
}