{
  "abi": [
    {
      "inputs": [],
      "stateMutability": "nonpayable",
      "type": "constructor"
    },
    {
      "anonymous": false,
      "inputs": [
        {
          "indexed": false,
          "internalType": "uint256",
          "name": "",
          "type": "uint256"
        }
      ],
      "name": "NewRequest",
      "type": "event"
    },
    {
      "inputs": [
        {
          "internalType": "bytes",
          "name": "data",
          "type": "bytes"
        },
        {
          "internalType": "function (bytes) external",
          "name": "callback",
          "type": "function"
        }
      ],
      "name": "query",
      "outputs": [],
      "stateMutability": "nonpayable",
      "type": "function"
    },
    {
      "inputs": [
        {
          "internalType": "uint256",
          "name": "requestID",
          "type": "uint256"
        },
        {
          "internalType": "bytes",
          "name": "response",
          "type": "bytes"
        }
      ],
      "name": "reply",
      "outputs": [],
      "stateMutability": "nonpayable",
      "type": "function"
    }
  ],
  "bytecode": {
    "object": "0x608060405234801561001057600080fd5b50600080546001600160a01b0319163317905561045d806100326000396000f3fe608060405234801561001057600080fd5b50600436106100365760003560e01c8063b21faa4a1461003b578063d72d6770146100ea575b600080fd5b6100e86004803603604081101561005157600080fd5b8135919081019060408101602082013564010000000081111561007357600080fd5b82018360208201111561008557600080fd5b803590602001918460018302840111640100000000831117156100a757600080fd5b91908080601f0160208091040260200160405190810160405280939291908181526020018383808284376000920191909152509295506101a0945050505050565b005b6100e86004803603604081101561010057600080fd5b81019060208101813564010000000081111561011b57600080fd5b82018360208201111561012d57600080fd5b8035906020019184600183028401116401000000008311171561014f57600080fd5b91908080601f01602080910402602001604051908101604052809392919081815260200183838082843760009201919091525092955050509035606081901c925060401c63ffffffff1690506102ab565b6000546001600160a01b03163381146101b857600080fd5b600183815481106101c557fe5b906000526020600020906002020160010160009054906101000a90048060201c6001600160a01b03169063ffffffff16836040518263ffffffff1660e01b81526004018080602001828103825283818151815260200191508051906020019080838360005b8381101561024257818101518382015260200161022a565b50505050905090810190601f16801561026f5780820380516001836020036101000a031916815260200191505b5092505050600060405180830381600087803b15801561028e57600080fd5b505af11580156102a2573d6000803e3d6000fd5b50505050505050565b604080518082018252848152602084811b63ffffffff85161790921b8282015260018054808201825560009190915281518051929360029092027fb10e2d527612073b26eecdfd717e6a320cf44b4afac2b0732d9fcbe2b7fa0cf60192610315928492019061038c565b50602091820151600191820180546001600160c01b03191663ffffffff604093841c908116640100000000600160c01b03919091161717905590548151600019909101815290517fe5e7dd91b3ed7fb84c335f117423d1b9bbbed2d76c57e81520dd681b9ede9885929181900390910190a1505050565b828054600181600116156101000203166002900490600052602060002090601f016020900481019282601f106103cd57805160ff19168380011785556103fa565b828001600101855582156103fa579182015b828111156103fa5782518255916020019190600101906103df565b5061040692915061040a565b5090565b61042491905b808211156104065760008155600101610410565b9056fea26469706673582212202c0744d71712d7e38485acd35dadc1cbcf5781954f7a3aa1162cef112e17ba9e64736f6c63430006000033",
    "linkReferences": {}
  },
  "methodIdentifiers": {
    "query(bytes,function)": "d72d6770",
    "reply(uint256,bytes)": "b21faa4a"
  },
  "id": 8
}