{
  "abi": [
    {
      "inputs": [
        {
          "internalType": "address",
          "name": "addr",
          "type": "address"
        }
      ],
      "stateMutability": "nonpayable",
      "type": "constructor"
    },
    {
      "anonymous": false,
      "inputs": [
        {
          "indexed": false,
          "internalType": "bytes",
          "name": "hashData",
          "type": "bytes"
        },
        {
          "indexed": false,
          "internalType": "address[]",
          "name": "trueOracles",
          "type": "address[]"
        }
      ],
      "name": "CorrectHashFound",
      "type": "event"
    },
    {
      "anonymous": false,
      "inputs": [
        {
          "indexed": false,
          "internalType": "bytes",
          "name": "hashData",
          "type": "bytes"
        },
        {
          "indexed": false,
          "internalType": "uint256",
          "name": "num",
          "type": "uint256"
        }
      ],
      "name": "NotHashFound",
      "type": "event"
    },
    {
      "inputs": [
        {
          "internalType": "address",
          "name": "oracleAddress",
          "type": "address"
        },
        {
          "internalType": "address[]",
          "name": "devicesAddresses",
          "type": "address[]"
        }
      ],
      "name": "addOracle",
      "outputs": [],
      "stateMutability": "nonpayable",
      "type": "function"
    },
    {
      "inputs": [
        {
          "internalType": "uint256",
          "name": "",
          "type": "uint256"
        }
      ],
      "name": "oracleList",
      "outputs": [
        {
          "internalType": "address",
          "name": "",
          "type": "address"
        }
      ],
      "stateMutability": "view",
      "type": "function"
    },
    {
      "inputs": [
        {
          "internalType": "bytes",
          "name": "response",
          "type": "bytes"
        }
      ],
      "name": "oracleResponse",
      "outputs": [],
      "stateMutability": "nonpayable",
      "type": "function"
    },
    {
      "inputs": [],
      "name": "owner",
      "outputs": [
        {
          "internalType": "address",
          "name": "",
          "type": "address"
        }
      ],
      "stateMutability": "view",
      "type": "function"
    },
    {
      "inputs": [
        {
          "internalType": "address",
          "name": "reputationSC",
          "type": "address"
        },
        {
          "internalType": "address[]",
          "name": "oracleAddress",
          "type": "address[]"
        },
        {
          "internalType": "bytes[]",
          "name": "dataHashes",
          "type": "bytes[]"
        }
      ],
      "name": "reportReputationScore",
      "outputs": [
        {
          "internalType": "address",
          "name": "selectedOracle",
          "type": "address"
        }
      ],
      "stateMutability": "nonpayable",
      "type": "function"
    },
    {
      "inputs": [
        {
          "internalType": "address",
          "name": "userAddr",
          "type": "address"
        },
        {
          "internalType": "address",
          "name": "iotDeviceAddr",
          "type": "address"
        },
        {
          "internalType": "uint256",
          "name": "numOfOracles",
          "type": "uint256"
        }
      ],
      "name": "sendDataRequest",
      "outputs": [],
      "stateMutability": "nonpayable",
      "type": "function"
    }
  ],
  "bytecode": {
    "object": "0x608060405234801561001057600080fd5b5060405161123f38038061123f83398101604081905261002f91610062565b60008054336001600160a01b031991821617909155600180549091166001600160a01b0392909216919091179055610090565b600060208284031215610073578081fd5b81516001600160a01b0381168114610089578182fd5b9392505050565b6111a08061009f6000396000f3fe608060405234801561001057600080fd5b50600436106100625760003560e01c8063239aad0d14610067578063493292c3146100905780638da5cb5b146100a5578063978c4c59146100ad5780639da79a8a146100c0578063bfaab59e146100d3575b600080fd5b61007a610075366004610e8e565b6100e6565b6040516100879190610f18565b60405180910390f35b6100a361009e366004610d40565b61010d565b005b61007a6101ad565b61007a6100bb366004610d8e565b6101bc565b6100a36100ce366004610d00565b61062d565b6100a36100e1366004610e53565b6107d3565b600881815481106100f357fe5b6000918252602090912001546001600160a01b0316905081565b6000546001600160a01b031633146101405760405162461bcd60e51b815260040161013790611065565b60405180910390fd5b60088054600181019091557ff3f7a9fe364faab93b216da50a3214154f22a0a2b415b23a84c8169e8b636ee30180546001600160a01b0319166001600160a01b038416908117909155600090815260076020908152604090912082516101a892840190610a37565b505050565b6000546001600160a01b031681565b600080546001600160a01b031633146101e75760405162461bcd60e51b815260040161013790611065565b60006002600354816101f557fe5b0490506060808060005b86518110156103b257600987828151811061021657fe5b602002602001015160405161022b9190610efc565b9081526020016040518091039020546000146102fa57600987828151811061024f57fe5b60200260200101516040516102649190610efc565b908152604051908190036020019020805460010190558651600a9088908390811061028b57fe5b60200260200101516040516102a09190610efc565b90815260200160405180910390208882815181106102ba57fe5b60209081029190910181015182546001810184556000938452919092200180546001600160a01b0319166001600160a01b039092169190911790556103aa565b6001600988838151811061030a57fe5b602002602001015160405161031f9190610efc565b908152602001604051809103902081905550600a87828151811061033f57fe5b60200260200101516040516103549190610efc565b908152602001604051809103902088828151811061036e57fe5b60209081029190910181015182546001810184556000938452919092200180546001600160a01b0319166001600160a01b039092169190911790555b6001016101ff565b5060005b865181101561053c578460098883815181106103ce57fe5b60200260200101516040516103e39190610efc565b90815260200160405180910390205411156104e85786818151811061040457fe5b6020026020010151935060008090505b600a856040516104249190610efc565b908152604051908190036020019020548110156104a857600b600a8660405161044d9190610efc565b9081526020016040518091039020828154811061046657fe5b6000918252602080832090910154835460018181018655948452919092200180546001600160a01b0319166001600160a01b0390921691909117905501610414565b507f34c2f061ee5fa9962cf61feaaca7ffedad412fad0a34e85ed66b0f5e7b22275e84600b6040516104db929190610fad565b60405180910390a161053c565b7fbd0314a86b3caff5c24f70fb0eaeb6f8b2a8a890f7853a0081046f355972c52187828151811061051557fe5b60200260200101518660405161052c929190611043565b60405180910390a16001016103b6565b5060005b865181101561059d5760005b600b5481101561059457600b828154811061056357fe5b60009182526020909120015489516001600160a01b03909116908a908490811061058957fe5b50505060010161054c565b50600101610540565b506040516314e901d760e31b815288906001600160a01b0382169063a7480eb8906105ce9086908690600401610f2c565b602060405180830381600087803b1580156105e857600080fd5b505af11580156105fc573d6000803e3d6000fd5b505050506040513d601f19601f820116820180604052506106209190810190610cdd565b9998505050505050505050565b6003819055600680546001600160a01b0319166001600160a01b0385161790556000805b6008548110156107cc5760005b600760006008848154811061066f57fe5b60009182526020808320909101546001600160a01b031683528201929092526040019020548110156107c35760076000600884815481106106ac57fe5b60009182526020808320909101546001600160a01b0316835282019290925260400190208054829081106106dc57fe5b6000918252602090912001546001600160a01b03868116911614156107bb57828060010193505060006008838154811061071257fe5b600091825260209182902001546040516001600160a01b039091169250829163d72d677091610743918a9101610edf565b60408051601f19818403018152908290526001600160e01b031960e084901b16825261077991309063bfaab59e90600401611012565b600060405180830381600087803b15801561079357600080fd5b505af11580156107a7573d6000803e3d6000fd5b50505050848414156107b957506107c3565b505b60010161065e565b50600101610651565b5050505050565b6000805b60085481101561081b57600881815481106107ee57fe5b6000918252602090912001546001600160a01b0316331415610813576001915061081b565b6001016107d7565b5060018115151461083e5760405162461bcd60e51b8152600401610137906110a7565b600280546001908101909155600480548083019091557f8a35acfbc15ff81a39ae7d344fd709f28e8600b4aa8c65c6b64bfe7fe36bd19b0180546001600160a01b0319163317905560058054918201815560005282516108c5917f036b6384b5eca791c62761152d0c79bb0604c104a5fb6f4eb0703f3154bb3db001906020850190610a9c565b506003546002541415610a33576001546004805460408051602080840282018101909252828152610a12946001600160a01b0316939092909183018282801561093757602002820191906000526020600020905b81546001600160a01b03168152600190910190602001808311610919575b50505050506005805480602002602001604051908101604052809291908181526020016000905b82821015610a095760008481526020908190208301805460408051601f60026000196101006001871615020190941693909304928301859004850281018501909152818152928301828280156109f55780601f106109ca576101008083540402835291602001916109f5565b820191906000526020600020905b8154815290600101906020018083116109d857829003601f168201915b50505050508152602001906001019061095e565b505050506101bc565b5060026000905560046000610a279190610b16565b610a3360056000610b37565b5050565b828054828255906000526020600020908101928215610a8c579160200282015b82811115610a8c57825182546001600160a01b0319166001600160a01b03909116178255602090920191600190910190610a57565b50610a98929150610b55565b5090565b828054600181600116156101000203166002900490600052602060002090601f016020900481019282601f10610add57805160ff1916838001178555610b0a565b82800160010185558215610b0a579182015b82811115610b0a578251825591602001919060010190610aef565b50610a98929150610b7c565b5080546000825590600052602060002090810190610b349190610b7c565b50565b5080546000825590600052602060002090810190610b349190610b96565b610b7991905b80821115610a985780546001600160a01b0319168155600101610b5b565b90565b610b7991905b80821115610a985760008155600101610b82565b610b7991905b80821115610a98576000610bb08282610bb9565b50600101610b9c565b50805460018160011615610100020316600290046000825580601f10610bdf5750610b34565b601f016020900490600052602060002090810190610b349190610b7c565b600082601f830112610c0d578081fd5b8135610c20610c1b82611105565b6110de565b818152915060208083019084810181840286018201871015610c4157600080fd5b60005b84811015610c69578135610c5781611155565b84529282019290820190600101610c44565b505050505092915050565b600082601f830112610c84578081fd5b813567ffffffffffffffff811115610c9a578182fd5b610cad601f8201601f19166020016110de565b9150808252836020828501011115610cc457600080fd5b8060208401602084013760009082016020015292915050565b600060208284031215610cee578081fd5b8151610cf981611155565b9392505050565b600080600060608486031215610d14578182fd5b8335610d1f81611155565b92506020840135610d2f81611155565b929592945050506040919091013590565b60008060408385031215610d52578182fd5b8235610d5d81611155565b9150602083013567ffffffffffffffff811115610d78578182fd5b610d8485828601610bfd565b9150509250929050565b600080600060608486031215610da2578283fd5b8335610dad81611155565b925060208481013567ffffffffffffffff80821115610dca578485fd5b610dd688838901610bfd565b94506040870135915080821115610deb578384fd5b5080860187601f820112610dfd578384fd5b80359150610e0d610c1b83611105565b82815283810190828501865b85811015610e4257610e308c888435880101610c74565b84529286019290860190600101610e19565b505080955050505050509250925092565b600060208284031215610e64578081fd5b813567ffffffffffffffff811115610e7a578182fd5b610e8684828501610c74565b949350505050565b600060208284031215610e9f578081fd5b5035919050565b6001600160a01b03169052565b60008151808452610ecb816020860160208601611125565b601f01601f19169290920160200192915050565b60609190911b6bffffffffffffffffffffffff1916815260140190565b60008251610f0e818460208701611125565b9190910192915050565b6001600160a01b0391909116815260200190565b604080825283519082018190526000906020906060840190828701845b82811015610f6c57610f5c848351610ea6565b9284019290840190600101610f49565b50505083810382850152845180825285830191830190845b81811015610fa057835183529284019291840191600101610f84565b5090979650505050505050565b600060408252610fc06040830185610eb3565b8281036020840152808454808352602083019150858452602084209250835b818110156110065783546001600160a01b0316835260019384019360209093019201610fdf565b50909695505050505050565b6000604082526110256040830186610eb3565b905063ffffffff83168460201b1760401b6020830152949350505050565b6000604082526110566040830185610eb3565b90508260208301529392505050565b60208082526022908201527f4f6e6c7920636f6e7472616374206f776e65722063616e2063616c6c20746869604082015261399760f11b606082015260800190565b6020808252601a908201527f4f6e6c79204f7261636c652063616e2063616c6c20746869732e000000000000604082015260600190565b60405181810167ffffffffffffffff811182821017156110fd57600080fd5b604052919050565b600067ffffffffffffffff82111561111b578081fd5b5060209081020190565b60005b83811015611140578181015183820152602001611128565b8381111561114f576000848401525b50505050565b6001600160a01b0381168114610b3457600080fdfea26469706673582212206de0cce36cc2d312492f6cfc461534a6661e5b604642be387b1cfaf25b64d68664736f6c63430006000033",
    "linkReferences": {}
  },
  "methodIdentifiers": {
    "addOracle(address,address[])": "493292c3",
    "oracleList(uint256)": "239aad0d",
    "oracleResponse(bytes)": "bfaab59e",
    "owner()": "8da5cb5b",
    "reportReputationScore(address,address[],bytes[])": "978c4c59",
    "sendDataRequest(address,address,uint256)": "9da79a8a"
  },
  "id": 7
}