{
  "abi": [
    {
      "inputs": [],
      "stateMutability": "nonpayable",
      "type": "constructor"
    },
    {
      "anonymous": false,
      "inputs": [
        {
          "indexed": false,
          "internalType": "address",
          "name": "sender",
          "type": "address"
        },
        {
          "indexed": false,
          "internalType": "bytes32",
          "name": "token",
          "type": "bytes32"
        }
      ],
      "name": "LoginAttempt",
      "type": "event"
    },
    {
      "inputs": [],
      "name": "hash",
      "outputs": [
        {
          "internalType": "bytes32",
          "name": "",
          "type": "bytes32"
        }
      ],
      "stateMutability": "view",
      "type": "function"
    },
    {
      "inputs": [],
      "name": "login_admin",
      "outputs": [],
      "stateMutability": "nonpayable",
      "type": "function"
    },
    {
      "inputs": [
        {
          "internalType": "uint256",
          "name": "min",
          "type": "uint256"
        },
        {
          "internalType": "uint256",
          "name": "max",
          "type": "uint256"
        }
      ],
      "name": "rand",
      "outputs": [
        {
          "internalType": "bytes32",
          "name": "",
          "type": "bytes32"
        }
      ],
      "stateMutability": "nonpayable",
      "type": "function"
    }
  ],
  "bytecode": {
    "object": "0x608060405234801561001057600080fd5b50600080546001600160a01b03191633179055610187806100326000396000f3fe608060405234801561001057600080fd5b50600436106100415760003560e01c806309bd5a601461004657806395032b6214610060578063f262c49f14610083575b600080fd5b61004e61008d565b60408051918252519081900360200190f35b61004e6004803603604081101561007657600080fd5b5080359060200135610093565b61008b6100b7565b005b60015481565b600080546001600160a01b031633146100ab57600080fd5b50505043600019014090565b6000546001600160a01b031633146100ce57600080fd5b6100da60016064610093565b60038190556040805133602080830182905242838501526060808401959095528351808403909501855260808301808552855195909101949094206001819055935260a0810192909252517f5913a2a1da9e820000b253b31744f5c4b17e184c6d3f19d8e9beaef994d804f89181900360c00190a156fea2646970667358221220aea9fbc923559ca4f7fd61ef16109e07a6ec39a16e969c87df1c7fe61afaddc164736f6c63430006000033",
    "linkReferences": {}
  },
  "methodIdentifiers": {
    "hash()": "09bd5a60",
    "login_admin()": "f262c49f",
    "rand(uint256,uint256)": "95032b62"
  },
  "id": 13
}